:020000040000fa
:080000000002040000000000f2
:020000040000fa
:100008009402000094020000940200009402000090
:100018009402000094020000940200009402000080
:100028009402000094020000940200009402000070
:100038009402000094020000940200009402000060
:100048009402000094020000940200009402000050
:100058009402000094020000940200009402000040
:1000680014050000fe040000940200009402000041
:100078009402000094020000940200009402000020
:100088009402000094020000940200009402000010
:100098009402000094020000940200009402000000
:1000a80094020000940200009402000094020000f0
:1000b80094020000940200009402000094020000e0
:1000c80094020000940200009402000094020000d0
:1000d80094020000940200009402000094020000c0
:1000e80094020000940200009402000094020000b0
:1000f80094020000940200009402000094020000a0
:10010800940200009402000094020000940200008f
:10011800940200009402000094020000940200007f
:10012800940200009402000094020000940200006f
:10013800940200009402000094020000940200005f
:10014800940200009402000094020000940200004f
:10015800940200009402000094020000940200003f
:10016800940200009402000094020000940200002f
:10017800940200009402000094020000940200001f
:10018800940200009402000094020000940200000f
:1001980094020000940200009402000094020000ff
:1001a80094020000940200009402000094020000ef
:1001b80094020000940200009402000094020000df
:1001c80094020000940200009402000094020000cf
:1001d80094020000940200009402000094020000bf
:1001e80094020000940200009402000094020000af
:0801f8009402000094020000d3
:020000040000fa
:10020800940200009402000094020000940200008e
:10021800940200009402000094020000940200007e
:10022800940200009402000094020000940200006e
:10023800940200009402000094020000940200005e
:10024800940200009402000094020000940200004e
:10025800940200009402000094020000940200003e
:1002680014050000fe04000094020000940200003f
:10027800940200009402000094020000940200001e
:10028800940200009402000094020000940200000e
:1002980094020000940200009402000094020000fe
:1002a80094020000940200009402000094020000ee
:1002b80094020000940200009402000094020000de
:1002c80094020000940200009402000094020000ce
:1002d80094020000940200009402000094020000be
:1002e80094020000940200009402000094020000ae
:1002f800940200009402000094020000940200009e
:10030800940200009402000094020000940200008d
:10031800940200009402000094020000940200007d
:10032800940200009402000094020000940200006d
:10033800940200009402000094020000940200005d
:10034800940200009402000094020000940200004d
:10035800940200009402000094020000940200003d
:10036800940200009402000094020000940200002d
:10037800940200009402000094020000940200001d
:10038800940200009402000094020000940200000d
:1003980094020000940200009402000094020000fd
:1003a80094020000940200009402000094020000ed
:1003b80094020000940200009402000094020000dd
:1003c80094020000940200009402000094020000cd
:1003d80094020000940200009402000094020000bd
:1003e80094020000940200009402000094020000ad
:0803f8009402000094020000d1
:020000040000fa
:100400002f8d20000e7f24000e01880000000000c8
:1004100000012000200288000c0007002068200056
:100420000100200011000700000020000000e00093
:100430000200320000000200000000004c06020032
:10044000000000000040da000000fe004440a90067
:10045000000020000000e000030032000000200047
:10046000a00188004440a800000006009101880017
:10047000800078000000eb0015003700e2804000ab
:1004800032a0b4009101ba00e280400032a0b40072
:100490009102ba00e280400032a0b4000002eb00fa
:1004a000472bde00f507b200602ce10004003a00a3
:1004b0000059eb008301e900fdff3e000400370016
:1004c0006128e100010032000082eb000400070017
:1004d0001101ba000200e000e8ff3a000000060047
:1004e0003159ba008301e9000c0032002159ba00e9
:1004f0008301e900080032000400e00003003a0034
:10050000e280400032a0b400f5ff370011d9ba00f4
:100510008301e900faff3a008100e800e180400031
:1005200032a0b400000006000040da000000fe0027
:020000040000fa
:100530000000fa00e446a800e466a80007e2a8006c
:1005400014012000241088009620a8009600a8001e
:100550000080fa00000006000400fa00000f780096
:10056000110798000002eb000440880027003700c4
:100570000602a80000000000341080006102620042
:10058000e00f5200fcff3a00640a200014108800bb
:100590000000000045108000040024000482620076
:1005a000e00f5200fbff3a001e0278001410880092
:1005b0000000000045108000040024000482620056
:1005c000e00f5200fbff3a001e029000141088005a
:1005d0000000000045108000040024000482620036
:1005e000e00f5200fbff3a000642a80000000000a6
:1005f0003410800064026200e00f5200fcff3a00f9
:10060000044080000402e8000440880004408000a8
:10061000e50f5200d6ff34000080fa00000006000b
:100620000000fa000002eb0004408800440037009c
:100630000602a80000000000341080006102620081
:10064000e00f5200fcff3a00640a200014108800fa
:1006500000000000451080000400240004826200b5
:10066000e00f5200fbff3a002403200014408800f2
:10067000154080000440800004824200141088006d
:100680000000000045108000040024000482620085
:10069000e00f5200fbff3a000622a8000000000015
:1006a0003410800062026200e00f5200fcff3a004a
:1006b000740a20001410880000000000451080001b
:1006c0000400240004826200e00f5200fbff3a00a5
:1006d0000662a8000000000034108000680262007a
:1006e000e00f5200fcff3a0006408000041080003a
:1006f000044278004580200085024300844a780047
:1007000006a2a8000682a8000000000034108000a5
:1007100070026200e00f5200fcff3a000642a8009f
:10072000000000003410800064026200e00f5200fc
:10073000fcff3a00044080000402e8000440880006
:1007400004408000e50f5200b9ff3400654080008e
:1007500054802000144278000403fb00858242008c
:10076000e480200004824200060a78006440800091
:100770006540800005834200e5802000850243003b
:1007800095027800c82add0004034200e4802000be
:1007900004024300050a7800654080006440800040
:1007a00004034200e48020000402430014037800a4
:1007b00044802000144278000402fb00040373000c
:1007c00085824200e480200004824200060a78000c
:1007d0006440800084024200e480200004824200e1
:1007e000140278006102620004427800e04f520077
:1007f0000c003200644080006540800005834200a8
:10080000e580200085024300950278008502e8001b
:100810008582ea0004034200e480200004024300d1
:10082000050a78006540800074802000144278003a
:100830000403fb0085824200e4842000048242001d
:10084000060a78006440800065408000058342000d
:10085000e58420008502430095027800c82add0067
:1008600004034200e484200004024300050a7800e7
:10087000654080006440800004034200e48420005e
:1008800004024300140378006480200014427800be
:100890000402fb000403730085824200e48420000c
:1008a00004824200060a780064408000840242000c
:1008b000e484200004824200140278006102620095
:1008c00004427800e04f52000c0032006440800087
:1008d0006540800005834200e584200085024300d6
:1008e000950278008502e8008582ea000403420050
:1008f000e484200004024300050a7800654080007b
:1009000094802000144278000403fb00858242009a
:10091000e488200004824200060a780064408000d7
:100920006540800005834200e58820008502430081
:1009300095027800c82add0004034200e488200004
:1009400004024300050a780065408000644080008e
:1009500004034200e48820000402430014037800ea
:1009600084802000144278000402fb00040373001a
:1009700085824200e488200004824200060a780052
:100980006440800084024200e48820000482420027
:10099000140278006102620004427800e04f5200c5
:1009a0000c003200644080006540800005834200f6
:1009b000e588200085024300950278008502e80062
:1009c0008582ea0004034200e48820000402430018
:1009d000050a7800644080000402e8006440880052
:1009e00064408000ff0f5200020034000002eb0060
:1009f000644088000080fa0000000600841f780030
:100a00003400f80004002000a40188000000fa006f
:100a10008620a900441080000080fa003400f9000c
:100a20004f027800004006003400f800881f78006c
:100a300008002000a80188004f0478000000fa0098
:100a40008600a9000080fa003400f900004006008a
:100a50000200fa00004f78001e02fb00a416880076
:100a6000d502a900d522a900d542a8001000200077
:100a700069000700d542a900700220006600070047
:100a80000080fa00000006000200fa00004f780023
:100a90001e02fb00a4168800d502a800d522a900da
:100aa000d542a800100020005b000700d542a90035
:100ab00070022000580007000080fa0000000600c5
:100ac0000000fa000002eb0094168800e00120000c
:100ad0003100070080c3b300ddff0700f0002000f5
:100ae0002d00070080c3b300d9ff0700f0002000ed
:100af0002900070060c0b300d5ff0700c0c0b300e5
:100b0000d3ff070010c0b300d1ff07002000200072
:100b1000210007000080fa00000006000400fa002f
:100b2000100798000002eb00040f78000700370060
:100b30001e0278009e029000048242001442780057
:100b400004407800d0ff07001e0fe8001e02780066
:100b5000ef0f5200f6ff34000080fa00000006009c
:100b60000200fa00000f7800050037001e0278002e
:100b70001442780004407800c3ff07001e0fe8000d
:100b80001e02780014427800e04f5200f7ff3a004e
:100b90000080fa00000006000200fa00000f780052
:100ba00005e1a9000421a90004c1a90024088000ce
:100bb0000440a1000450a10024088800047d200006
:100bc000140888000002eb00844688000d003700fe
:100bd0000002eb000408880005e1a8000000000006
:100be0002404800068026200e00f5200fcff320023
:100bf0008460a90005e1a900844680000402e800a1
:100c000084468800844680009e0f5200f0ff340026
:100c10000080fa00000006000200fa00000f7800d1
:100c200005e1a9000421a90004c1a900240880004d
:100c30000440a1000450a1002408880024002000e2
:100c4000140888000002eb00844688000d0037007d
:100c50000002eb000408880005e1a8000000000085
:100c60002404800068026200e00f5200fcff3200a2
:100c70008460a90005e1a900844680000402e80020
:100c800084468800844680009e0f5200f0ff3400a6
:100c90000080fa00000006000000fa0024fe0700b1
:100ca000f1002000c00220002bfe0700b100200050
:100cb0001003200028fe070081002000d002200041
:100cc00025fe07007eff0700000c200060ff0700e4
:100cd000e48c2000144278000402fb000400780039
:100ce00069ff0700e48c2000144278000402fb0036
:100cf0000402e8000400780063ff070048fe0700d4
:040d0000feff3700bb
:020000040000fa
:100d0400ce080000020000000200000061000000a4
:100d1400d0080000020000000000000000080000ed
:0c0d2400ce0000000000000000000000f5
:020000040000fa
:0200000401f009
:04000000ffff0000fe
:020000040000fa
:0200000401f009
:04000400ffff0000fa
:020000040000fa
:0200000401f009
:04000800ffff0000f6
:020000040000fa
:0200000401f009
:04000c00faff0000f7
:020000040000fa
:0200000401f009
:04001000bdff000030
:020000040000fa
:0200000401f009
:0400140060ff000089
:020000040000fa
:0200000401f009
:04001800ffff0000e6
:020000040000fa
:0200000401f009
:04001c00dfff000002
:00000001FF
